:107000000C942A380C9447380C9447380C94473821
:107010000C9447380C9447380C9447380C944738F4
:107020000C9447380C9447380C9447380C944738E4
:107030000C9447380C9447380C9447380C944738D4
:107040000C9447380C9447380C9447380C944738C4
:107050000C94473811241FBECFE5D8E0DEBFCDBF6A
:1070600010E0A0E6B0E0EEE1F7E702C005900D9277
:10707000A236B107D9F711E0A2E6B0E001C01D9237
:10708000AD36B107E1F70E9466390C948E3B0C9443
:1070900000385D9BFECF8CB908951F93982F829581
:1070A0008F708A3048F0282F295A892F8F708A30A4
:1070B00048F0182F195A08C0282F205D892F8F708B
:1070C0008A30B8F7182F105D822F0E944938812F1F
:1070D0000E9449381F910895EF92FF920F931F93DA
:1070E0005F9BFECFEE24FF2487015F9915C00894B3
:1070F000E11CF11C011D111D81E4E81682E4F80673
:107100008FE0080780E0180780F3E0916400F091B9
:10711000650009955F9BEBCF8CB199271F910F916B
:10712000FF90EF9008950F931F930E946C38082FE3
:107130000E9449380E946C38182F0E944938013645
:1071400028F00755113638F0175508C00033D0F332
:1071500000531136C8F7103308F010530295007F22
:10716000100F812F99271F910F9108950F931F934F
:10717000082F882331F010E00E946C381F5F011740
:10718000D9F71F910F9108951F93182F0E946C3803
:10719000803269F0809163008F5F80936300853057
:1071A00079F4E0916400F0916500099509C084E1EB
:1071B0000E944938812F0E94493880E10E94493855
:1071C0001F9108950E946C38803271F080916300A5
:1071D0008F5F80936300853009F00895E09164002B
:1071E000F09165000995089584E10E94493880E195
:1071F0000E9449380895CF93DF93CDB7DEB7249727
:107200000FB6F894DEBF0FBECDBF482F882309F418
:107210004EC010926A0120E030E0C19A19821A82B1
:107220001B821C8289819A81AB81BC8180589E43DC
:10723000A040B040A0F489819A81AB81BC810196C5
:10724000A11DB11D89839A83AB83BC8389819A81F7
:10725000AB81BC8180589E43A040B04060F3C19890
:1072600019821A821B821C8289819A81AB81BC811E
:1072700080589E43A040B040A0F489819A81AB81A0
:10728000BC810196A11DB11D89839A83AB83BC8308
:1072900089819A81AB81BC8180589E43A040B040D7
:1072A00060F32F5F3F4F241708F4B7CF04C010924C
:1072B0006A0143E0B0CF20936A0124960FB6F89498
:1072C000DEBF0FBECDBFDF91CF9108950F931F9307
:1072D000CF93DF9394B714BE81B5886181BD11BC93
:1072E00091FF81C110BC83E389B988E18AB986E83E
:1072F00080BDB99A88E00E94FB380E946C388033C8
:10730000B9F18133C1F1803409F455C0813409F4F5
:107310005BC0823409F46AC0853409F46DC08035DD
:1073200039F1813509F4FAC0823511F1853509F456
:10733000D1C0863509F4C7C0843609F463C08437E8
:1073400009F4F1C0853709F4D0C0863709F44AC082
:10735000809163008F5F80936300853071F6E091C8
:107360006400F091650009950E946C38803349F6FD
:107370000E94E238C2CF0E946C38803249F784E123
:107380000E94493881E40E94493886E50E944938C4
:1073900082E50E94493880E20E94493889E40E94CF
:1073A000493883E50E94493880E50E94493880E1E8
:1073B0000E944938A2CF0E946C388638C8F20E94D9
:1073C0006C380E94E23899CF0E946C38803809F4FA
:1073D00002C1813809F4FBC0823809F400C1883940
:1073E00009F498C080E00E94C43887CF84E10E94ED
:1073F000B6380E94E23881CF85E00E94B6380E94FC
:10740000E2387BCF0E946C38809369010E946C380F
:107410008093680180916C018E7F80936C010E9443
:107420006C38853429F480916C01816080936C0103
:107430008091680190916901892B89F0C0E0D0E0CA
:1074400008E610E00E946C38F80181938F012196C4
:107450008091680190916901C817D90798F30E943B
:107460006C38803209F074CF80916C0180FFC1C00C
:107470008091680190916901892BF1F020E030E062
:10748000E8E6F0E0A0916600B09167008191082ED7
:107490000E94823BA0916600B09167001196B09364
:1074A0006700A09366002F5F3F4F80916801909125
:1074B00069012817390750F384E10E94493880E1B7
:1074C0000E9449381ACF84E00E94B63880E00E94BA
:1074D000C43813CF0E946C38809366000E946C38C9
:1074E000809367000E94E23808CF0E946C38803297
:1074F00009F02ECF84E10E9449388EE10E9449387C
:1075000085E90E94493882E00E94493880E10E9462
:107510004938F3CE83E00E94C438EFCE0E94E238AF
:1075200088E081BDFFCF0E946C38809369010E9482
:107530006C38809368010E946C38853409F4C7C0A8
:1075400080916C018E7F80936C0180916600909198
:107550006700880F991F90936700809366000E94D0
:107560006C38803209F0C9CE84E10E94493880919C
:10757000680190916901009749F2C0E0D0E0A091C4
:107580006600B09167000CC021FFA7C01196B093B0
:107590006700A09366002196C817D90708F0B6CFF8
:1075A00020916C0120FFF0CF0E947A3B802D0E9439
:1075B0004938A0916600B09167001196B0936700BA
:1075C000A09366008091680190916901E4CF81E009
:1075D0000E94C43892CE82E00E94C4388ECE80E1F0
:1075E0000E94C4388ACEE0916400F091650009954C
:1075F00079CE8091670087FD66C010926B01809103
:10760000660090916700880F991F909367008093A0
:1076100066008091680180FF09C0809168019091A7
:10762000690101969093690180936801F894E1994A
:10763000FECF1127E0916600F0916700C8E6D0E028
:107640008091680190916901103091F40091570088
:1076500001700130D9F303E000935700E8950091E1
:10766000570001700130D9F301E100935700E8950C
:10767000099019900091570001700130D9F301E091
:1076800000935700E8951395103498F01127009156
:10769000570001700130D9F305E000935700E895D9
:1076A0000091570001700130D9F301E100935700B8
:1076B000E8953296029709F0C7CF103011F0029684
:1076C000E5CF1124F9CE81E080936B0198CF8091B2
:1076D0006C01816080936C0142CFFD0184910E9416
:1076E00049388091680190916901A0916600B0913C
:1076F00067004CCFE199FECFBFBBAEBBE09A1196BD
:107700000DB20895E199FECFBFBBAEBB0DBA119685
:0E7710000FB6F894E29AE19A0FBE0895FFCFEB
:02771E008000E9
:040000030000700089
:00000001FF
